{
  "contractName": "HeirToTheThrown",
  "abi": [
    {
      "constant": true,
      "inputs": [],
      "name": "taxesHeld",
      "outputs": [
        {
          "name": "",
          "type": "uint256"
        }
      ],
      "payable": false,
      "stateMutability": "view",
      "type": "function"
    },
    {
      "constant": false,
      "inputs": [],
      "name": "renounceContractOwnership",
      "outputs": [],
      "payable": false,
      "stateMutability": "nonpayable",
      "type": "function"
    },
    {
      "constant": true,
      "inputs": [],
      "name": "abdicationCostPerc",
      "outputs": [
        {
          "name": "",
          "type": "uint256"
        }
      ],
      "payable": false,
      "stateMutability": "view",
      "type": "function"
    },
    {
      "constant": true,
      "inputs": [],
      "name": "crownCost",
      "outputs": [
        {
          "name": "",
          "type": "uint256"
        }
      ],
      "payable": false,
      "stateMutability": "view",
      "type": "function"
    },
    {
      "constant": true,
      "inputs": [],
      "name": "latestContract",
      "outputs": [
        {
          "name": "",
          "type": "address"
        }
      ],
      "payable": false,
      "stateMutability": "view",
      "type": "function"
    },
    {
      "constant": false,
      "inputs": [
        {
          "name": "_newContractOwner",
          "type": "address"
        }
      ],
      "name": "transferContractOwnership",
      "outputs": [],
      "payable": false,
      "stateMutability": "nonpayable",
      "type": "function"
    },
    {
      "constant": true,
      "inputs": [],
      "name": "coefCostPerc",
      "outputs": [
        {
          "name": "",
          "type": "uint256"
        }
      ],
      "payable": false,
      "stateMutability": "view",
      "type": "function"
    },
    {
      "constant": true,
      "inputs": [],
      "name": "contractOwner",
      "outputs": [
        {
          "name": "",
          "type": "address"
        }
      ],
      "payable": false,
      "stateMutability": "view",
      "type": "function"
    },
    {
      "constant": true,
      "inputs": [
        {
          "name": "",
          "type": "uint256"
        }
      ],
      "name": "dynasties",
      "outputs": [
        {
          "name": "name",
          "type": "string"
        },
        {
          "name": "totalMonarchs",
          "type": "uint256"
        }
      ],
      "payable": false,
      "stateMutability": "view",
      "type": "function"
    },
    {
      "inputs": [
        {
          "name": "_startingCost",
          "type": "uint256"
        }
      ],
      "payable": true,
      "stateMutability": "payable",
      "type": "constructor"
    },
    {
      "payable": true,
      "stateMutability": "payable",
      "type": "fallback"
    },
    {
      "anonymous": false,
      "inputs": [
        {
          "indexed": true,
          "name": "DynastyStarter",
          "type": "address"
        }
      ],
      "name": "DynastyStarted",
      "type": "event"
    },
    {
      "anonymous": false,
      "inputs": [
        {
          "indexed": true,
          "name": "previousMonarch",
          "type": "address"
        }
      ],
      "name": "CrownRenounced",
      "type": "event"
    },
    {
      "anonymous": false,
      "inputs": [
        {
          "indexed": true,
          "name": "previousMonarch",
          "type": "address"
        },
        {
          "indexed": true,
          "name": "newMonarch",
          "type": "address"
        },
        {
          "indexed": false,
          "name": "amount",
          "type": "uint256"
        }
      ],
      "name": "CrownTaken",
      "type": "event"
    },
    {
      "anonymous": false,
      "inputs": [
        {
          "indexed": true,
          "name": "from",
          "type": "address"
        },
        {
          "indexed": true,
          "name": "currentMonarch",
          "type": "address"
        },
        {
          "indexed": false,
          "name": "amount",
          "type": "uint256"
        }
      ],
      "name": "TaxesPayed",
      "type": "event"
    },
    {
      "anonymous": false,
      "inputs": [
        {
          "indexed": true,
          "name": "previousOwner",
          "type": "address"
        }
      ],
      "name": "contractOwnershipRenounced",
      "type": "event"
    },
    {
      "anonymous": false,
      "inputs": [
        {
          "indexed": true,
          "name": "previousOwner",
          "type": "address"
        },
        {
          "indexed": true,
          "name": "newOwner",
          "type": "address"
        }
      ],
      "name": "contractOwnershipTransferred",
      "type": "event"
    },
    {
      "constant": false,
      "inputs": [
        {
          "name": "_heirName",
          "type": "string"
        }
      ],
      "name": "takeCrown",
      "outputs": [],
      "payable": true,
      "stateMutability": "payable",
      "type": "function"
    },
    {
      "constant": false,
      "inputs": [
        {
          "name": "_crownCost",
          "type": "uint256"
        }
      ],
      "name": "takeCrown1",
      "outputs": [],
      "payable": true,
      "stateMutability": "payable",
      "type": "function"
    },
    {
      "constant": false,
      "inputs": [
        {
          "name": "_heirName",
          "type": "string"
        },
        {
          "name": "_dynastyName",
          "type": "string"
        }
      ],
      "name": "startDynasty",
      "outputs": [],
      "payable": true,
      "stateMutability": "payable",
      "type": "function"
    },
    {
      "constant": false,
      "inputs": [],
      "name": "abdicate",
      "outputs": [],
      "payable": true,
      "stateMutability": "payable",
      "type": "function"
    },
    {
      "constant": true,
      "inputs": [],
      "name": "getActiveMonarchAddr",
      "outputs": [
        {
          "name": "",
          "type": "address"
        }
      ],
      "payable": false,
      "stateMutability": "view",
      "type": "function"
    },
    {
      "constant": false,
      "inputs": [],
      "name": "payTaxes",
      "outputs": [],
      "payable": true,
      "stateMutability": "payable",
      "type": "function"
    },
    {
      "constant": true,
      "inputs": [
        {
          "name": "_dynastyIndex",
          "type": "uint256"
        },
        {
          "name": "_monarchIndex",
          "type": "uint256"
        }
      ],
      "name": "getMonarchAddr",
      "outputs": [
        {
          "name": "",
          "type": "address"
        }
      ],
      "payable": false,
      "stateMutability": "view",
      "type": "function"
    },
    {
      "constant": true,
      "inputs": [
        {
          "name": "_dynastyIndex",
          "type": "uint256"
        },
        {
          "name": "_monarchIndex",
          "type": "uint256"
        }
      ],
      "name": "getMonarchName",
      "outputs": [
        {
          "name": "",
          "type": "string"
        }
      ],
      "payable": false,
      "stateMutability": "view",
      "type": "function"
    },
    {
      "constant": true,
      "inputs": [
        {
          "name": "_dynastyIndex",
          "type": "uint256"
        },
        {
          "name": "_monarchIndex",
          "type": "uint256"
        }
      ],
      "name": "getMonarchCrownCost",
      "outputs": [
        {
          "name": "",
          "type": "uint256"
        }
      ],
      "payable": false,
      "stateMutability": "view",
      "type": "function"
    },
    {
      "constant": true,
      "inputs": [
        {
          "name": "_dynastyIndex",
          "type": "uint256"
        },
        {
          "name": "_monarchIndex",
          "type": "uint256"
        }
      ],
      "name": "hasMonarchAbdicated",
      "outputs": [
        {
          "name": "",
          "type": "bool"
        }
      ],
      "payable": false,
      "stateMutability": "view",
      "type": "function"
    },
    {
      "constant": true,
      "inputs": [],
      "name": "getTotalDynasties",
      "outputs": [
        {
          "name": "",
          "type": "uint256"
        }
      ],
      "payable": false,
      "stateMutability": "view",
      "type": "function"
    },
    {
      "constant": false,
      "inputs": [
        {
          "name": "_newAddress",
          "type": "address"
        }
      ],
      "name": "changeAddr",
      "outputs": [],
      "payable": false,
      "stateMutability": "nonpayable",
      "type": "function"
    },
    {
      "constant": false,
      "inputs": [
        {
          "name": "_latestContract",
          "type": "address"
        }
      ],
      "name": "setLatestContract",
      "outputs": [],
      "payable": false,
      "stateMutability": "nonpayable",
      "type": "function"
    },
    {
      "constant": false,
      "inputs": [],
      "name": "contractWithdrawal",
      "outputs": [],
      "payable": false,
      "stateMutability": "nonpayable",
      "type": "function"
    },
    {
      "constant": true,
      "inputs": [],
      "name": "getEthBalance",
      "outputs": [
        {
          "name": "",
          "type": "uint256"
        }
      ],
      "payable": false,
      "stateMutability": "view",
      "type": "function"
    }
  ],
  "bytecode": "0x6080604052600560035560026004556005805560405160208062002dca83398101806040528101908080519060200190929190505050336000806101000a81548173ffffffffffffffffffffffffffffffffffffffff021916908373ffffffffffffffffffffffffffffffffffffffff16021790555030600160006101000a81548173ffffffffffffffffffffffffffffffffffffffff021916908373ffffffffffffffffffffffffffffffffffffffff160217905550336000806101000a81548173ffffffffffffffffffffffffffffffffffffffff021916908373ffffffffffffffffffffffffffffffffffffffff16021790555080600381905550620001826040805190810160405280600581526020017f466c6173680000000000000000000000000000000000000000000000000000008152506040805190810160405280600581526020017f466972737400000000000000000000000000000000000000000000000000000081525062000189640100000000026401000000009004565b5062000c40565b6000600280549050141515620002ba576002600160028054905003815481101515620001b157fe5b906000526020600020906003020160010160016002600160028054905003815481101515620001dc57fe5b90600052602060002090600302016001018054905003815481101515620001ff57fe5b906000526020600020906004020160030160009054906101000a900460ff161515620002b9576040517f08c379a00000000000000000000000000000000000000000000000000000000081526004018080602001828103825260228152602001807f4c6173742044796e61737479206973207374696c6c20676f696e67207374726f81526020017f6e6700000000000000000000000000000000000000000000000000000000000081525060400191505060405180910390fd5b5b60028054809190600101620002d091906200095d565b50806002600160028054905003815481101515620002ea57fe5b906000526020600020906003020160000190805190602001906200031092919062000992565b506200032b8262000372640100000000026401000000009004565b3373ffffffffffffffffffffffffffffffffffffffff167f1ad53ce525e6c324541035f9caf2db89eff2b525cf2ea8c69495af8ece7197dc60405160405180910390a25050565b60006200037e62000a19565b600354600654340110151515620003fd576040517f08c379a00000000000000000000000000000000000000000000000000000000081526004018080602001828103825260178152602001807f43616e6e6f74206166666f7264207468652043726f776e00000000000000000081525060200191505060405180910390fd5b6006543401915060006006819055506080604051908101604052803373ffffffffffffffffffffffffffffffffffffffff16815260200184815260200183815260200160001515815250905060016002805490501480156200048457506001600260008154811015156200046d57fe5b906000526020600020906003020160010180549050105b1562000583576000809054906101000a900473ffffffffffffffffffffffffffffffffffffffff1673ffffffffffffffffffffffffffffffffffffffff166108fc839081150290604051600060405180830381858888f19350505050158015620004f2573d6000803e3d6000fd5b50806000015173ffffffffffffffffffffffffffffffffffffffff166000809054906101000a900473ffffffffffffffffffffffffffffffffffffffff1673ffffffffffffffffffffffffffffffffffffffff167fc9a1a8173d8c59b0e18bc80f6ff9d56243d0119d87327fa99fa4bad25143712d846040518082815260200191505060405180910390a36200066d565b6200059c620007ad640100000000026401000000009004565b6000015173ffffffffffffffffffffffffffffffffffffffff166108fc839081150290604051600060405180830381858888f19350505050158015620005e6573d6000803e3d6000fd5b50806000015173ffffffffffffffffffffffffffffffffffffffff166200061b620007ad640100000000026401000000009004565b6000015173ffffffffffffffffffffffffffffffffffffffff167fc9a1a8173d8c59b0e18bc80f6ff9d56243d0119d87327fa99fa4bad25143712d846040518082815260200191505060405180910390a35b60026001600280549050038154811015156200068557fe5b9060005260206000209060030201600101819080600181540180825580915050906001820390600052602060002090600402016000909192909190915060008201518160000160006101000a81548173ffffffffffffffffffffffffffffffffffffffff021916908373ffffffffffffffffffffffffffffffffffffffff16021790555060208201518160010190805190602001906200072792919062000a5a565b506040820151816002015560608201518160030160006101000a81548160ff02191690831515021790555050505060026001600280549050038154811015156200076d57fe5b906000526020600020906003020160020160008154809291906001019190505550606460045483028115156200079f57fe5b048201600381905550505050565b620007b762000a19565b6002600160028054905003815481101515620007cf57fe5b906000526020600020906003020160010160016002600160028054905003815481101515620007fa57fe5b906000526020600020906003020160010180549050038154811015156200081d57fe5b9060005260206000209060040201608060405190810160405290816000820160009054906101000a900473ffffffffffffffffffffffffffffffffffffffff1673ffffffffffffffffffffffffffffffffffffffff1673ffffffffffffffffffffffffffffffffffffffff168152602001600182018054600181600116156101000203166002900480601f0160208091040260200160405190810160405280929190818152602001828054600181600116156101000203166002900480156200092a5780601f10620008fe576101008083540402835291602001916200092a565b820191906000526020600020905b8154815290600101906020018083116200090c57829003601f168201915b50505050508152602001600282015481526020016003820160009054906101000a900460ff161515151581525050905090565b8154818355818111156200098d576003028160030283600052602060002091820191016200098c919062000ae1565b5b505050565b828054600181600116156101000203166002900490600052602060002090601f016020900481019282601f10620009d557805160ff191683800117855562000a06565b8280016001018555821562000a06579182015b8281111562000a05578251825591602001919060010190620009e8565b5b50905062000a15919062000b2f565b5090565b608060405190810160405280600073ffffffffffffffffffffffffffffffffffffffff16815260200160608152602001600081526020016000151581525090565b828054600181600116156101000203166002900490600052602060002090601f016020900481019282601f1062000a9d57805160ff191683800117855562000ace565b8280016001018555821562000ace579182015b8281111562000acd57825182559160200191906001019062000ab0565b5b50905062000add919062000b2f565b5090565b62000b2c91905b8082111562000b28576000808201600062000b04919062000b57565b60018201600062000b16919062000ba3565b60028201600090555060030162000ae8565b5090565b90565b62000b5491905b8082111562000b5057600081600090555060010162000b36565b5090565b90565b50805460018160011615610100020316600290046000825580601f1062000b7f575062000ba0565b601f01602090049060005260206000209081019062000b9f919062000b2f565b5b50565b508054600082556004029060005260206000209081019062000bc6919062000bc9565b50565b62000c3d91905b8082111562000c3957600080820160006101000a81549073ffffffffffffffffffffffffffffffffffffffff021916905560018201600062000c13919062000b57565b60028201600090556003820160006101000a81549060ff02191690555060040162000bd0565b5090565b90565b61217a8062000c506000396000f30060806040526004361061013e576000357c0100000000000000000000000000000000000000000000000000000000900463ffffffff1680630212069014610140578063059e864b146101605780630e6c5f931461018b57806313c69896146101ce57806324f0478b146101e557806326f0dfef14610234578063314e99a2146102905780633bff46dd1461029a5780634309602d1461034a5780635195e4bc146103c157806351c4cb81146104185780635cf155cb1461044357806370ed0ada146104e55780638b3ba86f14610510578063a6a54f0c1461053b578063a843c51f14610592578063b032f53c146105d5578063cad9606214610620578063ce606ee01461064b578063dc7b46d6146106a2578063dfd5e4da146106b9578063e10e384a146106e4578063e81a5d69146106ee578063f9a8f7971461079b575b005b61015e600480360381019080803590602001909291905050506107de565b005b34801561016c57600080fd5b506101756107e8565b6040518082815260200191505060405180910390f35b34801561019757600080fd5b506101cc600480360381019080803573ffffffffffffffffffffffffffffffffffffffff1690602001909291905050506107ee565b005b3480156101da57600080fd5b506101e3610952565b005b3480156101f157600080fd5b5061021a6004803603810190808035906020019092919080359060200190929190505050610abd565b604051808215151515815260200191505060405180910390f35b61028e600480360381019080803590602001908201803590602001908080601f0160208091040260200160405190810160405280939291908181526020018383808284378201915050505050509192919290505050610bbd565b005b610298610fc8565b005b3480156102a657600080fd5b506102cf6004803603810190808035906020019092919080359060200190929190505050611113565b6040518080602001828103825283818151815260200191508051906020019080838360005b8381101561030f5780820151818401526020810190506102f4565b50505050905090810190601f16801561033c5780820380516001836020036101000a031916815260200191505b509250505060405180910390f35b34801561035657600080fd5b5061037f600480360381019080803590602001909291908035906020019092919050505061129e565b604051808273ffffffffffffffffffffffffffffffffffffffff1673ffffffffffffffffffffffffffffffffffffffff16815260200191505060405180910390f35b3480156103cd57600080fd5b506103d66113b1565b604051808273ffffffffffffffffffffffffffffffffffffffff1673ffffffffffffffffffffffffffffffffffffffff16815260200191505060405180910390f35b34801561042457600080fd5b5061042d61144d565b6040518082815260200191505060405180910390f35b6104e3600480360381019080803590602001908201803590602001908080601f0160208091040260200160405190810160405280939291908181526020018383808284378201915050505050509192919290803590602001908201803590602001908080601f0160208091040260200160405190810160405280939291908181526020018383808284378201915050505050509192919290505050611453565b005b3480156104f157600080fd5b506104fa611621565b6040518082815260200191505060405180910390f35b34801561051c57600080fd5b50610525611640565b6040518082815260200191505060405180910390f35b34801561054757600080fd5b50610550611646565b604051808273ffffffffffffffffffffffffffffffffffffffff1673ffffffffffffffffffffffffffffffffffffffff16815260200191505060405180910390f35b34801561059e57600080fd5b506105d3600480360381019080803573ffffffffffffffffffffffffffffffffffffffff16906020019092919050505061166c565b005b3480156105e157600080fd5b5061060a600480360381019080803590602001909291908035906020019092919050505061173c565b6040518082815260200191505060405180910390f35b34801561062c57600080fd5b5061063561182f565b6040518082815260200191505060405180910390f35b34801561065757600080fd5b50610660611835565b604051808273ffffffffffffffffffffffffffffffffffffffff1673ffffffffffffffffffffffffffffffffffffffff16815260200191505060405180910390f35b3480156106ae57600080fd5b506106b761185a565b005b3480156106c557600080fd5b506106ce611982565b6040518082815260200191505060405180910390f35b6106ec61198f565b005b3480156106fa57600080fd5b5061071960048036038101908080359060200190929190505050611a1d565b6040518080602001838152602001828103825284818151815260200191508051906020019080838360005b8381101561075f578082015181840152602081019050610744565b50505050905090810190601f16801561078c5780820380516001836020036101000a031916815260200191505b50935050505060405180910390f35b3480156107a757600080fd5b506107dc600480360381019080803573ffffffffffffffffffffffffffffffffffffffff169060200190929190505050611ae8565b005b8060038190555050565b60065481565b6107f6611bf0565b6000015173ffffffffffffffffffffffffffffffffffffffff163373ffffffffffffffffffffffffffffffffffffffff1614151561089c576040517f08c379a000000000000000000000000000000000000000000000000000000000815260040180806020018281038252600f8152602001807f4e6f7420746865206d6f6e61726368000000000000000000000000000000000081525060200191505060405180910390fd5b8060026001600280549050038154811015156108b457fe5b9060005260206000209060030201600101600160026001600280549050038154811015156108de57fe5b9060005260206000209060030201600101805490500381548110151561090057fe5b906000526020600020906004020160000160006101000a81548173ffffffffffffffffffffffffffffffffffffffff021916908373ffffffffffffffffffffffffffffffffffffffff16021790555050565b6000809054906101000a900473ffffffffffffffffffffffffffffffffffffffff1673ffffffffffffffffffffffffffffffffffffffff163373ffffffffffffffffffffffffffffffffffffffff16141515610a16576040517f08c379a00000000000000000000000000000000000000000000000000000000081526004018080602001828103825260168152602001807f4e6f742074686520636f6e7472616374206f776e65720000000000000000000081525060200191505060405180910390fd5b6000809054906101000a900473ffffffffffffffffffffffffffffffffffffffff1673ffffffffffffffffffffffffffffffffffffffff167fffcd9398806d9a44887f59da4f7b62df321d0637b2f381246eaf842fb67d67e560405160405180910390a260008060006101000a81548173ffffffffffffffffffffffffffffffffffffffff021916908373ffffffffffffffffffffffffffffffffffffffff160217905550565b600060028054905083108015610af55750600283815481101515610add57fe5b90600052602060002090600302016001018054905082105b1515610b69576040517f08c379a000000000000000000000000000000000000000000000000000000000815260040180806020018281038252600f8152602001807f496e76616c6964206d6f6e61726368000000000000000000000000000000000081525060200191505060405180910390fd5b600283815481101515610b7857fe5b906000526020600020906003020160010182815481101515610b9657fe5b906000526020600020906004020160030160009054906101000a900460ff16905092915050565b6000610bc7611e91565b600354600654340110151515610c45576040517f08c379a00000000000000000000000000000000000000000000000000000000081526004018080602001828103825260178152602001807f43616e6e6f74206166666f7264207468652043726f776e00000000000000000081525060200191505060405180910390fd5b6006543401915060006006819055506080604051908101604052803373ffffffffffffffffffffffffffffffffffffffff1681526020018481526020018381526020016000151581525090506001600280549050148015610cca5750600160026000815481101515610cb357fe5b906000526020600020906003020160010180549050105b15610dc6576000809054906101000a900473ffffffffffffffffffffffffffffffffffffffff1673ffffffffffffffffffffffffffffffffffffffff166108fc839081150290604051600060405180830381858888f19350505050158015610d36573d6000803e3d6000fd5b50806000015173ffffffffffffffffffffffffffffffffffffffff166000809054906101000a900473ffffffffffffffffffffffffffffffffffffffff1673ffffffffffffffffffffffffffffffffffffffff167fc9a1a8173d8c59b0e18bc80f6ff9d56243d0119d87327fa99fa4bad25143712d846040518082815260200191505060405180910390a3610e8d565b610dce611bf0565b6000015173ffffffffffffffffffffffffffffffffffffffff166108fc839081150290604051600060405180830381858888f19350505050158015610e17573d6000803e3d6000fd5b50806000015173ffffffffffffffffffffffffffffffffffffffff16610e3b611bf0565b6000015173ffffffffffffffffffffffffffffffffffffffff167fc9a1a8173d8c59b0e18bc80f6ff9d56243d0119d87327fa99fa4bad25143712d846040518082815260200191505060405180910390a35b6002600160028054905003815481101515610ea457fe5b9060005260206000209060030201600101819080600181540180825580915050906001820390600052602060002090600402016000909192909190915060008201518160000160006101000a81548173ffffffffffffffffffffffffffffffffffffffff021916908373ffffffffffffffffffffffffffffffffffffffff1602179055506020820151816001019080519060200190610f44929190611ed2565b506040820151816002015560608201518160030160006101000a81548160ff0219169083151502179055505050506002600160028054905003815481101515610f8957fe5b90600052602060002090600302016002016000815480929190600101919050555060646004548302811515610fba57fe5b048201600381905550505050565b610fd0611bf0565b6000015173ffffffffffffffffffffffffffffffffffffffff163373ffffffffffffffffffffffffffffffffffffffff16141515611076576040517f08c379a000000000000000000000000000000000000000000000000000000000815260040180806020018281038252600f8152602001807f4e6f7420746865206d6f6e61726368000000000000000000000000000000000081525060200191505060405180910390fd5b6064600554611083611bf0565b604001510202341015151561109757600080fd5b6000809054906101000a900473ffffffffffffffffffffffffffffffffffffffff1673ffffffffffffffffffffffffffffffffffffffff166108fc60646005546110df611bf0565b6040015102029081150290604051600060405180830381858888f19350505050158015611110573d6000803e3d6000fd5b50565b60606002805490508310801561114b575060028381548110151561113357fe5b90600052602060002090600302016001018054905082105b15156111bf576040517f08c379a000000000000000000000000000000000000000000000000000000000815260040180806020018281038252600f8152602001807f496e76616c6964206d6f6e61726368000000000000000000000000000000000081525060200191505060405180910390fd5b6002838154811015156111ce57fe5b9060005260206000209060030201600101828154811015156111ec57fe5b90600052602060002090600402016001018054600181600116156101000203166002900480601f0160208091040260200160405190810160405280929190818152602001828054600181600116156101000203166002900480156112915780601f1061126657610100808354040283529160200191611291565b820191906000526020600020905b81548152906001019060200180831161127457829003601f168201915b5050505050905092915050565b6000600280549050831080156112d657506002838154811015156112be57fe5b90600052602060002090600302016001018054905082105b151561134a576040517f08c379a000000000000000000000000000000000000000000000000000000000815260040180806020018281038252600f8152602001807f496e76616c6964206d6f6e61726368000000000000000000000000000000000081525060200191505060405180910390fd5b60028381548110151561135957fe5b90600052602060002090600302016001018281548110151561137757fe5b906000526020600020906004020160000160009054906101000a900473ffffffffffffffffffffffffffffffffffffffff16905092915050565b600060026001600280549050038154811015156113ca57fe5b9060005260206000209060030201600101600160026001600280549050038154811015156113f457fe5b9060005260206000209060030201600101805490500381548110151561141657fe5b906000526020600020906004020160000160009054906101000a900473ffffffffffffffffffffffffffffffffffffffff16905090565b60055481565b600060028054905014151561157f57600260016002805490500381548110151561147957fe5b9060005260206000209060030201600101600160026001600280549050038154811015156114a357fe5b906000526020600020906003020160010180549050038154811015156114c557fe5b906000526020600020906004020160030160009054906101000a900460ff16151561157e576040517f08c379a00000000000000000000000000000000000000000000000000000000081526004018080602001828103825260228152602001807f4c6173742044796e61737479206973207374696c6c20676f696e67207374726f81526020017f6e6700000000000000000000000000000000000000000000000000000000000081525060400191505060405180910390fd5b5b600280548091906001016115939190611f52565b508060026001600280549050038154811015156115ac57fe5b906000526020600020906003020160000190805190602001906115d0929190611f84565b506115da82610bbd565b3373ffffffffffffffffffffffffffffffffffffffff167f1ad53ce525e6c324541035f9caf2db89eff2b525cf2ea8c69495af8ece7197dc60405160405180910390a25050565b60003073ffffffffffffffffffffffffffffffffffffffff1631905090565b60035481565b600160009054906101000a900473ffffffffffffffffffffffffffffffffffffffff1681565b6000809054906101000a900473ffffffffffffffffffffffffffffffffffffffff1673ffffffffffffffffffffffffffffffffffffffff163373ffffffffffffffffffffffffffffffffffffffff16141515611730576040517f08c379a00000000000000000000000000000000000000000000000000000000081526004018080602001828103825260168152602001807f4e6f742074686520636f6e7472616374206f776e65720000000000000000000081525060200191505060405180910390fd5b61173981611d97565b50565b600060028054905083108015611774575060028381548110151561175c57fe5b90600052602060002090600302016001018054905082105b15156117e8576040517f08c379a000000000000000000000000000000000000000000000000000000000815260040180806020018281038252600f8152602001807f496e76616c6964206d6f6e61726368000000000000000000000000000000000081525060200191505060405180910390fd5b6002838154811015156117f757fe5b90600052602060002090600302016001018281548110151561181557fe5b906000526020600020906004020160020154905092915050565b60045481565b6000809054906101000a900473ffffffffffffffffffffffffffffffffffffffff1681565b6000809054906101000a900473ffffffffffffffffffffffffffffffffffffffff1673ffffffffffffffffffffffffffffffffffffffff163373ffffffffffffffffffffffffffffffffffffffff1614151561191e576040517f08c379a00000000000000000000000000000000000000000000000000000000081526004018080602001828103825260168152602001807f4e6f742074686520636f6e7472616374206f776e65720000000000000000000081525060200191505060405180910390fd5b3373ffffffffffffffffffffffffffffffffffffffff166108fc6006543073ffffffffffffffffffffffffffffffffffffffff1631039081150290604051600060405180830381858888f1935050505015801561197f573d6000803e3d6000fd5b50565b6000600280549050905090565b60023481151561199b57fe5b046006600082825401925050819055506119b3611bf0565b6000015173ffffffffffffffffffffffffffffffffffffffff163373ffffffffffffffffffffffffffffffffffffffff167f4147666d6a343d10e5238f5779d9ca7fcdfa84d1b6898eefcb37d8c77c7fa472346040518082815260200191505060405180910390a3565b600281815481101515611a2c57fe5b9060005260206000209060030201600091509050806000018054600181600116156101000203166002900480601f016020809104026020016040519081016040528092919081815260200182805460018160011615610100020316600290048015611ad85780601f10611aad57610100808354040283529160200191611ad8565b820191906000526020600020905b815481529060010190602001808311611abb57829003601f168201915b5050505050908060020154905082565b6000809054906101000a900473ffffffffffffffffffffffffffffffffffffffff1673ffffffffffffffffffffffffffffffffffffffff163373ffffffffffffffffffffffffffffffffffffffff16141515611bac576040517f08c379a00000000000000000000000000000000000000000000000000000000081526004018080602001828103825260168152602001807f4e6f742074686520636f6e7472616374206f776e65720000000000000000000081525060200191505060405180910390fd5b80600160006101000a81548173ffffffffffffffffffffffffffffffffffffffff021916908373ffffffffffffffffffffffffffffffffffffffff16021790555050565b611bf8611e91565b6002600160028054905003815481101515611c0f57fe5b906000526020600020906003020160010160016002600160028054905003815481101515611c3957fe5b90600052602060002090600302016001018054905003815481101515611c5b57fe5b9060005260206000209060040201608060405190810160405290816000820160009054906101000a900473ffffffffffffffffffffffffffffffffffffffff1673ffffffffffffffffffffffffffffffffffffffff1673ffffffffffffffffffffffffffffffffffffffff168152602001600182018054600181600116156101000203166002900480601f016020809104026020016040519081016040528092919081815260200182805460018160011615610100020316600290048015611d645780601f10611d3957610100808354040283529160200191611d64565b820191906000526020600020905b815481529060010190602001808311611d4757829003601f168201915b50505050508152602001600282015481526020016003820160009054906101000a900460ff161515151581525050905090565b600073ffffffffffffffffffffffffffffffffffffffff168173ffffffffffffffffffffffffffffffffffffffff1614151515611dd357600080fd5b8073ffffffffffffffffffffffffffffffffffffffff166000809054906101000a900473ffffffffffffffffffffffffffffffffffffffff1673ffffffffffffffffffffffffffffffffffffffff167fb8392f5cf9e1ec5c3312f2133b5aad9e01e03769bba90fce0a02b1ac5c52f92b60405160405180910390a3806000806101000a81548173ffffffffffffffffffffffffffffffffffffffff021916908373ffffffffffffffffffffffffffffffffffffffff16021790555050565b608060405190810160405280600073ffffffffffffffffffffffffffffffffffffffff16815260200160608152602001600081526020016000151581525090565b828054600181600116156101000203166002900490600052602060002090601f016020900481019282601f10611f1357805160ff1916838001178555611f41565b82800160010185558215611f41579182015b82811115611f40578251825591602001919060010190611f25565b5b509050611f4e9190612004565b5090565b815481835581811115611f7f57600302816003028360005260206000209182019101611f7e9190612029565b5b505050565b828054600181600116156101000203166002900490600052602060002090601f016020900481019282601f10611fc557805160ff1916838001178555611ff3565b82800160010185558215611ff3579182015b82811115611ff2578251825591602001919060010190611fd7565b5b5090506120009190612004565b5090565b61202691905b8082111561202257600081600090555060010161200a565b5090565b90565b61206d91905b8082111561206957600080820160006120489190612070565b60018201600061205891906120b8565b60028201600090555060030161202f565b5090565b90565b50805460018160011615610100020316600290046000825580601f1061209657506120b5565b601f0160209004906000526020600020908101906120b49190612004565b5b50565b50805460008255600402906000526020600020908101906120d991906120dc565b50565b61214b91905b8082111561214757600080820160006101000a81549073ffffffffffffffffffffffffffffffffffffffff02191690556001820160006121229190612070565b60028201600090556003820160006101000a81549060ff0219169055506004016120e2565b5090565b905600a165627a7a7230582040a662f8d7f872fe0076f6cb8154cc24fa1d6ef12c37cd48da3f7bf5f886d3820029",
  "source": "pragma solidity ^0.4.24;\n\nimport \"./Ownable.sol\";\n\ncontract HeirToTheThrown is Ownable {\n\n\t//Points to latest contract\n\taddress public latestContract;\n\n\t//is using a mapping better than using an array here?\n\tdynasty[] public dynasties;\n\n\t//cost to become new monarch\n\tuint public crownCost = 5;\n\n\t//How much higher than the last each price has to be (as a percentage)\n\tuint public coefCostPerc = 2;\n\t//Cost to abdicate (as a percentage)\n\tuint public abdicationCostPerc = 5;\n\n\t//Taxes pay towards\n\tuint public taxesHeld;\n\n\tstruct monarch {\n\t\taddress addr;\n\t\tstring name;\n\t\tuint costOfCrown;\n\t\tbool abdicated;\n\t}\n\n\tstruct dynasty {\n\t\tstring name;\n\t\tmonarch[] monarchs;\n\t\tuint totalMonarchs;//number of monarchs in this dynasty\n\t}\n\n\tmodifier onlyMonarch() {\n\t\trequire(msg.sender == getActiveMonarch().addr, \"Not the monarch\");\n\t\t_;\n\t}\n\n\t//Events\n\tevent DynastyStarted(address indexed DynastyStarter);\n\tevent CrownRenounced(address indexed previousMonarch);\n\tevent CrownTaken(address indexed previousMonarch, address indexed newMonarch, uint amount);\n\tevent TaxesPayed(address indexed from, address indexed currentMonarch, uint amount);\n\n\tconstructor(uint _startingCost) public payable {\n\t\tlatestContract = address(this);\n\t\tcontractOwner = msg.sender;\n\t\tcrownCost = _startingCost;\n\t\tstartDynasty(\"Flash\", \"First\");\n\t}\n\n\tfunction() public payable {\n\t\t//\n\t}\n\n\tfunction takeCrown(string _heirName) public payable {//TODO Check for exploits\n\t\trequire(msg.value + taxesHeld >= crownCost, \"Cannot afford the Crown\");\n\t\tuint value = msg.value + taxesHeld;\n\t\ttaxesHeld = 0;\n\n\t\tmonarch memory newMonarch = monarch(msg.sender, _heirName, value, false);\n\n\t\tif (dynasties.length == 1 && dynasties[0].monarchs.length < 1) {\n\t\t\tcontractOwner.transfer(value);\n\t\t\temit CrownTaken(contractOwner, newMonarch.addr, value);\n\t\t} else {\n\t\t\tgetActiveMonarch().addr.transfer(value);\n\t\t\temit CrownTaken(getActiveMonarch().addr, newMonarch.addr, value);\n\t\t}\n\n\t\tdynasties[dynasties.length - 1].monarchs.push(newMonarch);\n\n\t\tdynasties[dynasties.length - 1].totalMonarchs++;\n\n\t\tcrownCost = value + value * coefCostPerc / 100;\n\t}\n\n\tfunction takeCrown1(uint _crownCost) public payable {//TEMP\n\t\tcrownCost = _crownCost;\n\t}\n\n\tfunction startDynasty(string _heirName, string _dynastyName) public payable {\n\t\tif (dynasties.length != 0) {\n\t\t\trequire(dynasties[dynasties.length - 1].monarchs[dynasties[dynasties.length - 1].monarchs.length - 1].abdicated, \"Last Dynasty is still going strong\");\n\t\t}\n\t\tdynasties.length++;\n\t\tdynasties[dynasties.length - 1].name = _dynastyName;\n\t\ttakeCrown(_heirName);\n\t\temit DynastyStarted(msg.sender);\n\t}\n\n\tfunction abdication() private pure {//TODO\n\n\t}\n\n\tfunction abdicate() public payable onlyMonarch {\n\t\trequire(msg.value >= getActiveMonarch().costOfCrown * abdicationCostPerc * 100);\n\t\tcontractOwner.transfer(getActiveMonarch().costOfCrown * abdicationCostPerc * 100);\n\t}\n\n\tfunction getActiveMonarch() private view returns (monarch) {\n\t\treturn dynasties[dynasties.length - 1].monarchs[dynasties[dynasties.length - 1].monarchs.length - 1];\n\t}\n\n\tfunction getActiveMonarchAddr() external view returns (address) {\n\t\treturn dynasties[dynasties.length - 1].monarchs[dynasties[dynasties.length - 1].monarchs.length - 1].addr;\n\t}\n\n\tfunction payTaxes() public payable {\n\t\ttaxesHeld += msg.value / 2;\n\t\temit TaxesPayed(msg.sender, getActiveMonarch().addr, msg.value);\n\t}\n\n\t//Getters for monarch with indices\n\tfunction getMonarchAddr(uint _dynastyIndex, uint _monarchIndex) external view returns (address){\n\t\trequire(_dynastyIndex < dynasties.length && _monarchIndex < dynasties[_dynastyIndex].monarchs.length, \"Invalid monarch\");\n\t\treturn dynasties[_dynastyIndex].monarchs[_monarchIndex].addr;\n\t}\n\n\tfunction getMonarchName(uint _dynastyIndex, uint _monarchIndex) external view returns (string){\n\t\trequire(_dynastyIndex < dynasties.length && _monarchIndex < dynasties[_dynastyIndex].monarchs.length, \"Invalid monarch\");\n\t\treturn dynasties[_dynastyIndex].monarchs[_monarchIndex].name;\n\t}\n\n\tfunction getMonarchCrownCost(uint _dynastyIndex, uint _monarchIndex) external view returns (uint){\n\t\trequire(_dynastyIndex < dynasties.length && _monarchIndex < dynasties[_dynastyIndex].monarchs.length, \"Invalid monarch\");\n\t\treturn dynasties[_dynastyIndex].monarchs[_monarchIndex].costOfCrown;\n\t}\n\n\tfunction hasMonarchAbdicated(uint _dynastyIndex, uint _monarchIndex) external view returns (bool){\n\t\trequire(_dynastyIndex < dynasties.length && _monarchIndex < dynasties[_dynastyIndex].monarchs.length, \"Invalid monarch\");\n\t\treturn dynasties[_dynastyIndex].monarchs[_monarchIndex].abdicated;\n\t}\n\n\tfunction getActiveDynasty() private view returns (dynasty) {\n\t\treturn dynasties[dynasties.length - 1];\n\t}\n\n\tfunction getTotalDynasties() external view returns (uint) {\n\t\treturn dynasties.length;\n\t}\n\n\tfunction changeAddr(address _newAddress) public onlyMonarch {\n\t\tdynasties[dynasties.length - 1].monarchs[dynasties[dynasties.length - 1].monarchs.length - 1].addr = _newAddress;\n\t\t// getActiveMonarch().addr does not work\n\t}\n\n\t//If this code gets updated, point to it here\n\tfunction setLatestContract(address _latestContract) public onlyContractOwner {\n\t\tlatestContract = _latestContract;\n\t}\n\n\tfunction contractWithdrawal() public onlyContractOwner {\n\t\tmsg.sender.transfer(address(this).balance - taxesHeld);\n\t\t//Withdraws anything that isn't taxes\n\t}\n\n\tfunction getEthBalance() public view returns (uint) {\n\t\treturn address(this).balance;\n\t}\n\n}",
  "sourcePath": "/home/flashy/Git Repos/HeirToTheThrown/truffle/contracts/HeirToTheThrown.sol",
  "compiler": {
    "name": "solc",
    "version": "0.4.24+commit.e67f0147.Emscripten.clang"
  },
  "schemaVersion": "2.0.1",
  "updatedAt": "2018-10-05T23:35:03.390Z"
}