{
  "contractName": "HeirToTheThrown",
  "abi": [
    {
      "constant": true,
      "inputs": [],
      "name": "taxesHeld",
      "outputs": [
        {
          "name": "",
          "type": "uint256"
        }
      ],
      "payable": false,
      "stateMutability": "view",
      "type": "function"
    },
    {
      "constant": false,
      "inputs": [],
      "name": "renounceContractOwnership",
      "outputs": [],
      "payable": false,
      "stateMutability": "nonpayable",
      "type": "function"
    },
    {
      "constant": true,
      "inputs": [],
      "name": "abdicationCostPerc",
      "outputs": [
        {
          "name": "",
          "type": "uint256"
        }
      ],
      "payable": false,
      "stateMutability": "view",
      "type": "function"
    },
    {
      "constant": true,
      "inputs": [],
      "name": "crownCost",
      "outputs": [
        {
          "name": "",
          "type": "uint256"
        }
      ],
      "payable": false,
      "stateMutability": "view",
      "type": "function"
    },
    {
      "constant": true,
      "inputs": [],
      "name": "latestContract",
      "outputs": [
        {
          "name": "",
          "type": "address"
        }
      ],
      "payable": false,
      "stateMutability": "view",
      "type": "function"
    },
    {
      "constant": false,
      "inputs": [
        {
          "name": "_newContractOwner",
          "type": "address"
        }
      ],
      "name": "transferContractOwnership",
      "outputs": [],
      "payable": false,
      "stateMutability": "nonpayable",
      "type": "function"
    },
    {
      "constant": true,
      "inputs": [],
      "name": "coefCostPerc",
      "outputs": [
        {
          "name": "",
          "type": "uint256"
        }
      ],
      "payable": false,
      "stateMutability": "view",
      "type": "function"
    },
    {
      "constant": true,
      "inputs": [],
      "name": "contractOwner",
      "outputs": [
        {
          "name": "",
          "type": "address"
        }
      ],
      "payable": false,
      "stateMutability": "view",
      "type": "function"
    },
    {
      "constant": true,
      "inputs": [
        {
          "name": "",
          "type": "uint256"
        }
      ],
      "name": "dynasties",
      "outputs": [
        {
          "name": "name",
          "type": "string"
        },
        {
          "name": "totalMonarchs",
          "type": "uint256"
        }
      ],
      "payable": false,
      "stateMutability": "view",
      "type": "function"
    },
    {
      "inputs": [
        {
          "name": "_startingCost",
          "type": "uint256"
        }
      ],
      "payable": true,
      "stateMutability": "payable",
      "type": "constructor"
    },
    {
      "payable": true,
      "stateMutability": "payable",
      "type": "fallback"
    },
    {
      "anonymous": false,
      "inputs": [
        {
          "indexed": true,
          "name": "DynastyStarter",
          "type": "address"
        }
      ],
      "name": "DynastyStarted",
      "type": "event"
    },
    {
      "anonymous": false,
      "inputs": [
        {
          "indexed": true,
          "name": "previousMonarch",
          "type": "address"
        }
      ],
      "name": "CrownRenounced",
      "type": "event"
    },
    {
      "anonymous": false,
      "inputs": [
        {
          "indexed": true,
          "name": "previousMonarch",
          "type": "address"
        },
        {
          "indexed": true,
          "name": "newMonarch",
          "type": "address"
        },
        {
          "indexed": false,
          "name": "amount",
          "type": "uint256"
        }
      ],
      "name": "CrownTaken",
      "type": "event"
    },
    {
      "anonymous": false,
      "inputs": [
        {
          "indexed": true,
          "name": "from",
          "type": "address"
        },
        {
          "indexed": true,
          "name": "currentMonarch",
          "type": "address"
        },
        {
          "indexed": false,
          "name": "amount",
          "type": "uint256"
        }
      ],
      "name": "TaxesPayed",
      "type": "event"
    },
    {
      "anonymous": false,
      "inputs": [
        {
          "indexed": true,
          "name": "previousOwner",
          "type": "address"
        }
      ],
      "name": "contractOwnershipRenounced",
      "type": "event"
    },
    {
      "anonymous": false,
      "inputs": [
        {
          "indexed": true,
          "name": "previousOwner",
          "type": "address"
        },
        {
          "indexed": true,
          "name": "newOwner",
          "type": "address"
        }
      ],
      "name": "contractOwnershipTransferred",
      "type": "event"
    },
    {
      "constant": false,
      "inputs": [
        {
          "name": "_heirName",
          "type": "string"
        }
      ],
      "name": "takeCrown",
      "outputs": [],
      "payable": true,
      "stateMutability": "payable",
      "type": "function"
    },
    {
      "constant": false,
      "inputs": [
        {
          "name": "_heirName",
          "type": "string"
        },
        {
          "name": "_dynastyName",
          "type": "string"
        }
      ],
      "name": "startDynasty",
      "outputs": [],
      "payable": true,
      "stateMutability": "payable",
      "type": "function"
    },
    {
      "constant": false,
      "inputs": [],
      "name": "abdicate",
      "outputs": [],
      "payable": true,
      "stateMutability": "payable",
      "type": "function"
    },
    {
      "constant": true,
      "inputs": [],
      "name": "getActiveMonarchAddr",
      "outputs": [
        {
          "name": "",
          "type": "address"
        }
      ],
      "payable": false,
      "stateMutability": "view",
      "type": "function"
    },
    {
      "constant": false,
      "inputs": [],
      "name": "payTaxes",
      "outputs": [],
      "payable": true,
      "stateMutability": "payable",
      "type": "function"
    },
    {
      "constant": true,
      "inputs": [
        {
          "name": "_dynastyIndex",
          "type": "uint256"
        },
        {
          "name": "_monarchIndex",
          "type": "uint256"
        }
      ],
      "name": "getMonarchAddr",
      "outputs": [
        {
          "name": "",
          "type": "address"
        }
      ],
      "payable": false,
      "stateMutability": "view",
      "type": "function"
    },
    {
      "constant": true,
      "inputs": [
        {
          "name": "_dynastyIndex",
          "type": "uint256"
        },
        {
          "name": "_monarchIndex",
          "type": "uint256"
        }
      ],
      "name": "getMonarchName",
      "outputs": [
        {
          "name": "",
          "type": "string"
        }
      ],
      "payable": false,
      "stateMutability": "view",
      "type": "function"
    },
    {
      "constant": true,
      "inputs": [
        {
          "name": "_dynastyIndex",
          "type": "uint256"
        },
        {
          "name": "_monarchIndex",
          "type": "uint256"
        }
      ],
      "name": "getMonarchCrownCost",
      "outputs": [
        {
          "name": "",
          "type": "uint256"
        }
      ],
      "payable": false,
      "stateMutability": "view",
      "type": "function"
    },
    {
      "constant": true,
      "inputs": [
        {
          "name": "_dynastyIndex",
          "type": "uint256"
        },
        {
          "name": "_monarchIndex",
          "type": "uint256"
        }
      ],
      "name": "hasMonarchAbdicated",
      "outputs": [
        {
          "name": "",
          "type": "bool"
        }
      ],
      "payable": false,
      "stateMutability": "view",
      "type": "function"
    },
    {
      "constant": true,
      "inputs": [],
      "name": "getTotalDynasties",
      "outputs": [
        {
          "name": "",
          "type": "uint256"
        }
      ],
      "payable": false,
      "stateMutability": "view",
      "type": "function"
    },
    {
      "constant": false,
      "inputs": [
        {
          "name": "_newAddress",
          "type": "address"
        }
      ],
      "name": "changeAddr",
      "outputs": [],
      "payable": false,
      "stateMutability": "nonpayable",
      "type": "function"
    },
    {
      "constant": false,
      "inputs": [
        {
          "name": "_latestContract",
          "type": "address"
        }
      ],
      "name": "setLatestContract",
      "outputs": [],
      "payable": false,
      "stateMutability": "nonpayable",
      "type": "function"
    },
    {
      "constant": false,
      "inputs": [],
      "name": "contractWithdrawal",
      "outputs": [],
      "payable": false,
      "stateMutability": "nonpayable",
      "type": "function"
    }
  ],
  "bytecode": "0x608060405260026004556005805560405160208062002d3b83398101806040528101908080519060200190929190505050336000806101000a81548173ffffffffffffffffffffffffffffffffffffffff021916908373ffffffffffffffffffffffffffffffffffffffff16021790555030600160006101000a81548173ffffffffffffffffffffffffffffffffffffffff021916908373ffffffffffffffffffffffffffffffffffffffff160217905550336000806101000a81548173ffffffffffffffffffffffffffffffffffffffff021916908373ffffffffffffffffffffffffffffffffffffffff160217905550806003819055506200017d6040805190810160405280600581526020017f466c6173680000000000000000000000000000000000000000000000000000008152506040805190810160405280600581526020017f466972737400000000000000000000000000000000000000000000000000000081525062000184640100000000026401000000009004565b5062000c3b565b6000600280549050141515620002b5576002600160028054905003815481101515620001ac57fe5b906000526020600020906003020160010160016002600160028054905003815481101515620001d757fe5b90600052602060002090600302016001018054905003815481101515620001fa57fe5b906000526020600020906004020160030160009054906101000a900460ff161515620002b4576040517f08c379a00000000000000000000000000000000000000000000000000000000081526004018080602001828103825260228152602001807f4c6173742044796e61737479206973207374696c6c20676f696e67207374726f81526020017f6e6700000000000000000000000000000000000000000000000000000000000081525060400191505060405180910390fd5b5b60028054809190600101620002cb919062000958565b50806002600160028054905003815481101515620002e557fe5b906000526020600020906003020160000190805190602001906200030b9291906200098d565b5062000326826200036d640100000000026401000000009004565b3373ffffffffffffffffffffffffffffffffffffffff167f1ad53ce525e6c324541035f9caf2db89eff2b525cf2ea8c69495af8ece7197dc60405160405180910390a25050565b60006200037962000a14565b600354600654340110151515620003f8576040517f08c379a00000000000000000000000000000000000000000000000000000000081526004018080602001828103825260178152602001807f43616e6e6f74206166666f7264207468652043726f776e00000000000000000081525060200191505060405180910390fd5b6006543401915060006006819055506080604051908101604052803373ffffffffffffffffffffffffffffffffffffffff16815260200184815260200183815260200160001515815250905060016002805490501480156200047f57506001600260008154811015156200046857fe5b906000526020600020906003020160010180549050105b156200057e576000809054906101000a900473ffffffffffffffffffffffffffffffffffffffff1673ffffffffffffffffffffffffffffffffffffffff166108fc839081150290604051600060405180830381858888f19350505050158015620004ed573d6000803e3d6000fd5b50806000015173ffffffffffffffffffffffffffffffffffffffff166000809054906101000a900473ffffffffffffffffffffffffffffffffffffffff1673ffffffffffffffffffffffffffffffffffffffff167fc9a1a8173d8c59b0e18bc80f6ff9d56243d0119d87327fa99fa4bad25143712d846040518082815260200191505060405180910390a362000668565b62000597620007a8640100000000026401000000009004565b6000015173ffffffffffffffffffffffffffffffffffffffff166108fc839081150290604051600060405180830381858888f19350505050158015620005e1573d6000803e3d6000fd5b50806000015173ffffffffffffffffffffffffffffffffffffffff1662000616620007a8640100000000026401000000009004565b6000015173ffffffffffffffffffffffffffffffffffffffff167fc9a1a8173d8c59b0e18bc80f6ff9d56243d0119d87327fa99fa4bad25143712d846040518082815260200191505060405180910390a35b60026001600280549050038154811015156200068057fe5b9060005260206000209060030201600101819080600181540180825580915050906001820390600052602060002090600402016000909192909190915060008201518160000160006101000a81548173ffffffffffffffffffffffffffffffffffffffff021916908373ffffffffffffffffffffffffffffffffffffffff16021790555060208201518160010190805190602001906200072292919062000a55565b506040820151816002015560608201518160030160006101000a81548160ff02191690831515021790555050505060026001600280549050038154811015156200076857fe5b906000526020600020906003020160020160008154809291906001019190505550606460045483028115156200079a57fe5b048201600381905550505050565b620007b262000a14565b6002600160028054905003815481101515620007ca57fe5b906000526020600020906003020160010160016002600160028054905003815481101515620007f557fe5b906000526020600020906003020160010180549050038154811015156200081857fe5b9060005260206000209060040201608060405190810160405290816000820160009054906101000a900473ffffffffffffffffffffffffffffffffffffffff1673ffffffffffffffffffffffffffffffffffffffff1673ffffffffffffffffffffffffffffffffffffffff168152602001600182018054600181600116156101000203166002900480601f016020809104026020016040519081016040528092919081815260200182805460018160011615610100020316600290048015620009255780601f10620008f95761010080835404028352916020019162000925565b820191906000526020600020905b8154815290600101906020018083116200090757829003601f168201915b50505050508152602001600282015481526020016003820160009054906101000a900460ff161515151581525050905090565b815481835581811115620009885760030281600302836000526020600020918201910162000987919062000adc565b5b505050565b828054600181600116156101000203166002900490600052602060002090601f016020900481019282601f10620009d057805160ff191683800117855562000a01565b8280016001018555821562000a01579182015b8281111562000a00578251825591602001919060010190620009e3565b5b50905062000a10919062000b2a565b5090565b608060405190810160405280600073ffffffffffffffffffffffffffffffffffffffff16815260200160608152602001600081526020016000151581525090565b828054600181600116156101000203166002900490600052602060002090601f016020900481019282601f1062000a9857805160ff191683800117855562000ac9565b8280016001018555821562000ac9579182015b8281111562000ac857825182559160200191906001019062000aab565b5b50905062000ad8919062000b2a565b5090565b62000b2791905b8082111562000b23576000808201600062000aff919062000b52565b60018201600062000b11919062000b9e565b60028201600090555060030162000ae3565b5090565b90565b62000b4f91905b8082111562000b4b57600081600090555060010162000b31565b5090565b90565b50805460018160011615610100020316600290046000825580601f1062000b7a575062000b9b565b601f01602090049060005260206000209081019062000b9a919062000b2a565b5b50565b508054600082556004029060005260206000209081019062000bc1919062000bc4565b50565b62000c3891905b8082111562000c3457600080820160006101000a81549073ffffffffffffffffffffffffffffffffffffffff021916905560018201600062000c0e919062000b52565b60028201600090556003820160006101000a81549060ff02191690555060040162000bcb565b5090565b90565b6120f08062000c4b6000396000f300608060405260043610610128576000357c0100000000000000000000000000000000000000000000000000000000900463ffffffff168063059e864b1461012a5780630e6c5f931461015557806313c698961461019857806324f0478b146101af57806326f0dfef146101fe578063314e99a21461025a5780633bff46dd146102645780634309602d146103145780635195e4bc1461038b57806351c4cb81146103e25780635cf155cb1461040d5780638b3ba86f146104af578063a6a54f0c146104da578063a843c51f14610531578063b032f53c14610574578063cad96062146105bf578063ce606ee0146105ea578063dc7b46d614610641578063dfd5e4da14610658578063e10e384a14610683578063e81a5d691461068d578063f9a8f7971461073a575b005b34801561013657600080fd5b5061013f61077d565b6040518082815260200191505060405180910390f35b34801561016157600080fd5b50610196600480360381019080803573ffffffffffffffffffffffffffffffffffffffff169060200190929190505050610783565b005b3480156101a457600080fd5b506101ad6108e7565b005b3480156101bb57600080fd5b506101e46004803603810190808035906020019092919080359060200190929190505050610a52565b604051808215151515815260200191505060405180910390f35b610258600480360381019080803590602001908201803590602001908080601f0160208091040260200160405190810160405280939291908181526020018383808284378201915050505050509192919290505050610b52565b005b610262610f5d565b005b34801561027057600080fd5b5061029960048036038101908080359060200190929190803590602001909291905050506110a8565b6040518080602001828103825283818151815260200191508051906020019080838360005b838110156102d95780820151818401526020810190506102be565b50505050905090810190601f1680156103065780820380516001836020036101000a031916815260200191505b509250505060405180910390f35b34801561032057600080fd5b506103496004803603810190808035906020019092919080359060200190929190505050611233565b604051808273ffffffffffffffffffffffffffffffffffffffff1673ffffffffffffffffffffffffffffffffffffffff16815260200191505060405180910390f35b34801561039757600080fd5b506103a0611346565b604051808273ffffffffffffffffffffffffffffffffffffffff1673ffffffffffffffffffffffffffffffffffffffff16815260200191505060405180910390f35b3480156103ee57600080fd5b506103f76113e2565b6040518082815260200191505060405180910390f35b6104ad600480360381019080803590602001908201803590602001908080601f0160208091040260200160405190810160405280939291908181526020018383808284378201915050505050509192919290803590602001908201803590602001908080601f01602080910402602001604051908101604052809392919081815260200183838082843782019150505050505091929192905050506113e8565b005b3480156104bb57600080fd5b506104c46115b6565b6040518082815260200191505060405180910390f35b3480156104e657600080fd5b506104ef6115bc565b604051808273ffffffffffffffffffffffffffffffffffffffff1673ffffffffffffffffffffffffffffffffffffffff16815260200191505060405180910390f35b34801561053d57600080fd5b50610572600480360381019080803573ffffffffffffffffffffffffffffffffffffffff1690602001909291905050506115e2565b005b34801561058057600080fd5b506105a960048036038101908080359060200190929190803590602001909291905050506116b2565b6040518082815260200191505060405180910390f35b3480156105cb57600080fd5b506105d46117a5565b6040518082815260200191505060405180910390f35b3480156105f657600080fd5b506105ff6117ab565b604051808273ffffffffffffffffffffffffffffffffffffffff1673ffffffffffffffffffffffffffffffffffffffff16815260200191505060405180910390f35b34801561064d57600080fd5b506106566117d0565b005b34801561066457600080fd5b5061066d6118f8565b6040518082815260200191505060405180910390f35b61068b611905565b005b34801561069957600080fd5b506106b860048036038101908080359060200190929190505050611993565b6040518080602001838152602001828103825284818151815260200191508051906020019080838360005b838110156106fe5780820151818401526020810190506106e3565b50505050905090810190601f16801561072b5780820380516001836020036101000a031916815260200191505b50935050505060405180910390f35b34801561074657600080fd5b5061077b600480360381019080803573ffffffffffffffffffffffffffffffffffffffff169060200190929190505050611a5e565b005b60065481565b61078b611b66565b6000015173ffffffffffffffffffffffffffffffffffffffff163373ffffffffffffffffffffffffffffffffffffffff16141515610831576040517f08c379a000000000000000000000000000000000000000000000000000000000815260040180806020018281038252600f8152602001807f4e6f7420746865206d6f6e61726368000000000000000000000000000000000081525060200191505060405180910390fd5b80600260016002805490500381548110151561084957fe5b90600052602060002090600302016001016001600260016002805490500381548110151561087357fe5b9060005260206000209060030201600101805490500381548110151561089557fe5b906000526020600020906004020160000160006101000a81548173ffffffffffffffffffffffffffffffffffffffff021916908373ffffffffffffffffffffffffffffffffffffffff16021790555050565b6000809054906101000a900473ffffffffffffffffffffffffffffffffffffffff1673ffffffffffffffffffffffffffffffffffffffff163373ffffffffffffffffffffffffffffffffffffffff161415156109ab576040517f08c379a00000000000000000000000000000000000000000000000000000000081526004018080602001828103825260168152602001807f4e6f742074686520636f6e7472616374206f776e65720000000000000000000081525060200191505060405180910390fd5b6000809054906101000a900473ffffffffffffffffffffffffffffffffffffffff1673ffffffffffffffffffffffffffffffffffffffff167fffcd9398806d9a44887f59da4f7b62df321d0637b2f381246eaf842fb67d67e560405160405180910390a260008060006101000a81548173ffffffffffffffffffffffffffffffffffffffff021916908373ffffffffffffffffffffffffffffffffffffffff160217905550565b600060028054905083108015610a8a5750600283815481101515610a7257fe5b90600052602060002090600302016001018054905082105b1515610afe576040517f08c379a000000000000000000000000000000000000000000000000000000000815260040180806020018281038252600f8152602001807f496e76616c6964206d6f6e61726368000000000000000000000000000000000081525060200191505060405180910390fd5b600283815481101515610b0d57fe5b906000526020600020906003020160010182815481101515610b2b57fe5b906000526020600020906004020160030160009054906101000a900460ff16905092915050565b6000610b5c611e07565b600354600654340110151515610bda576040517f08c379a00000000000000000000000000000000000000000000000000000000081526004018080602001828103825260178152602001807f43616e6e6f74206166666f7264207468652043726f776e00000000000000000081525060200191505060405180910390fd5b6006543401915060006006819055506080604051908101604052803373ffffffffffffffffffffffffffffffffffffffff1681526020018481526020018381526020016000151581525090506001600280549050148015610c5f5750600160026000815481101515610c4857fe5b906000526020600020906003020160010180549050105b15610d5b576000809054906101000a900473ffffffffffffffffffffffffffffffffffffffff1673ffffffffffffffffffffffffffffffffffffffff166108fc839081150290604051600060405180830381858888f19350505050158015610ccb573d6000803e3d6000fd5b50806000015173ffffffffffffffffffffffffffffffffffffffff166000809054906101000a900473ffffffffffffffffffffffffffffffffffffffff1673ffffffffffffffffffffffffffffffffffffffff167fc9a1a8173d8c59b0e18bc80f6ff9d56243d0119d87327fa99fa4bad25143712d846040518082815260200191505060405180910390a3610e22565b610d63611b66565b6000015173ffffffffffffffffffffffffffffffffffffffff166108fc839081150290604051600060405180830381858888f19350505050158015610dac573d6000803e3d6000fd5b50806000015173ffffffffffffffffffffffffffffffffffffffff16610dd0611b66565b6000015173ffffffffffffffffffffffffffffffffffffffff167fc9a1a8173d8c59b0e18bc80f6ff9d56243d0119d87327fa99fa4bad25143712d846040518082815260200191505060405180910390a35b6002600160028054905003815481101515610e3957fe5b9060005260206000209060030201600101819080600181540180825580915050906001820390600052602060002090600402016000909192909190915060008201518160000160006101000a81548173ffffffffffffffffffffffffffffffffffffffff021916908373ffffffffffffffffffffffffffffffffffffffff1602179055506020820151816001019080519060200190610ed9929190611e48565b506040820151816002015560608201518160030160006101000a81548160ff0219169083151502179055505050506002600160028054905003815481101515610f1e57fe5b90600052602060002090600302016002016000815480929190600101919050555060646004548302811515610f4f57fe5b048201600381905550505050565b610f65611b66565b6000015173ffffffffffffffffffffffffffffffffffffffff163373ffffffffffffffffffffffffffffffffffffffff1614151561100b576040517f08c379a000000000000000000000000000000000000000000000000000000000815260040180806020018281038252600f8152602001807f4e6f7420746865206d6f6e61726368000000000000000000000000000000000081525060200191505060405180910390fd5b6064600554611018611b66565b604001510202341015151561102c57600080fd5b6000809054906101000a900473ffffffffffffffffffffffffffffffffffffffff1673ffffffffffffffffffffffffffffffffffffffff166108fc6064600554611074611b66565b6040015102029081150290604051600060405180830381858888f193505050501580156110a5573d6000803e3d6000fd5b50565b6060600280549050831080156110e057506002838154811015156110c857fe5b90600052602060002090600302016001018054905082105b1515611154576040517f08c379a000000000000000000000000000000000000000000000000000000000815260040180806020018281038252600f8152602001807f496e76616c6964206d6f6e61726368000000000000000000000000000000000081525060200191505060405180910390fd5b60028381548110151561116357fe5b90600052602060002090600302016001018281548110151561118157fe5b90600052602060002090600402016001018054600181600116156101000203166002900480601f0160208091040260200160405190810160405280929190818152602001828054600181600116156101000203166002900480156112265780601f106111fb57610100808354040283529160200191611226565b820191906000526020600020905b81548152906001019060200180831161120957829003601f168201915b5050505050905092915050565b60006002805490508310801561126b575060028381548110151561125357fe5b90600052602060002090600302016001018054905082105b15156112df576040517f08c379a000000000000000000000000000000000000000000000000000000000815260040180806020018281038252600f8152602001807f496e76616c6964206d6f6e61726368000000000000000000000000000000000081525060200191505060405180910390fd5b6002838154811015156112ee57fe5b90600052602060002090600302016001018281548110151561130c57fe5b906000526020600020906004020160000160009054906101000a900473ffffffffffffffffffffffffffffffffffffffff16905092915050565b6000600260016002805490500381548110151561135f57fe5b90600052602060002090600302016001016001600260016002805490500381548110151561138957fe5b906000526020600020906003020160010180549050038154811015156113ab57fe5b906000526020600020906004020160000160009054906101000a900473ffffffffffffffffffffffffffffffffffffffff16905090565b60055481565b600060028054905014151561151457600260016002805490500381548110151561140e57fe5b90600052602060002090600302016001016001600260016002805490500381548110151561143857fe5b9060005260206000209060030201600101805490500381548110151561145a57fe5b906000526020600020906004020160030160009054906101000a900460ff161515611513576040517f08c379a00000000000000000000000000000000000000000000000000000000081526004018080602001828103825260228152602001807f4c6173742044796e61737479206973207374696c6c20676f696e67207374726f81526020017f6e6700000000000000000000000000000000000000000000000000000000000081525060400191505060405180910390fd5b5b600280548091906001016115289190611ec8565b5080600260016002805490500381548110151561154157fe5b90600052602060002090600302016000019080519060200190611565929190611efa565b5061156f82610b52565b3373ffffffffffffffffffffffffffffffffffffffff167f1ad53ce525e6c324541035f9caf2db89eff2b525cf2ea8c69495af8ece7197dc60405160405180910390a25050565b60035481565b600160009054906101000a900473ffffffffffffffffffffffffffffffffffffffff1681565b6000809054906101000a900473ffffffffffffffffffffffffffffffffffffffff1673ffffffffffffffffffffffffffffffffffffffff163373ffffffffffffffffffffffffffffffffffffffff161415156116a6576040517f08c379a00000000000000000000000000000000000000000000000000000000081526004018080602001828103825260168152602001807f4e6f742074686520636f6e7472616374206f776e65720000000000000000000081525060200191505060405180910390fd5b6116af81611d0d565b50565b6000600280549050831080156116ea57506002838154811015156116d257fe5b90600052602060002090600302016001018054905082105b151561175e576040517f08c379a000000000000000000000000000000000000000000000000000000000815260040180806020018281038252600f8152602001807f496e76616c6964206d6f6e61726368000000000000000000000000000000000081525060200191505060405180910390fd5b60028381548110151561176d57fe5b90600052602060002090600302016001018281548110151561178b57fe5b906000526020600020906004020160020154905092915050565b60045481565b6000809054906101000a900473ffffffffffffffffffffffffffffffffffffffff1681565b6000809054906101000a900473ffffffffffffffffffffffffffffffffffffffff1673ffffffffffffffffffffffffffffffffffffffff163373ffffffffffffffffffffffffffffffffffffffff16141515611894576040517f08c379a00000000000000000000000000000000000000000000000000000000081526004018080602001828103825260168152602001807f4e6f742074686520636f6e7472616374206f776e65720000000000000000000081525060200191505060405180910390fd5b3373ffffffffffffffffffffffffffffffffffffffff166108fc6006543073ffffffffffffffffffffffffffffffffffffffff1631039081150290604051600060405180830381858888f193505050501580156118f5573d6000803e3d6000fd5b50565b6000600280549050905090565b60023481151561191157fe5b04600660008282540192505081905550611929611b66565b6000015173ffffffffffffffffffffffffffffffffffffffff163373ffffffffffffffffffffffffffffffffffffffff167f4147666d6a343d10e5238f5779d9ca7fcdfa84d1b6898eefcb37d8c77c7fa472346040518082815260200191505060405180910390a3565b6002818154811015156119a257fe5b9060005260206000209060030201600091509050806000018054600181600116156101000203166002900480601f016020809104026020016040519081016040528092919081815260200182805460018160011615610100020316600290048015611a4e5780601f10611a2357610100808354040283529160200191611a4e565b820191906000526020600020905b815481529060010190602001808311611a3157829003601f168201915b5050505050908060020154905082565b6000809054906101000a900473ffffffffffffffffffffffffffffffffffffffff1673ffffffffffffffffffffffffffffffffffffffff163373ffffffffffffffffffffffffffffffffffffffff16141515611b22576040517f08c379a00000000000000000000000000000000000000000000000000000000081526004018080602001828103825260168152602001807f4e6f742074686520636f6e7472616374206f776e65720000000000000000000081525060200191505060405180910390fd5b80600160006101000a81548173ffffffffffffffffffffffffffffffffffffffff021916908373ffffffffffffffffffffffffffffffffffffffff16021790555050565b611b6e611e07565b6002600160028054905003815481101515611b8557fe5b906000526020600020906003020160010160016002600160028054905003815481101515611baf57fe5b90600052602060002090600302016001018054905003815481101515611bd157fe5b9060005260206000209060040201608060405190810160405290816000820160009054906101000a900473ffffffffffffffffffffffffffffffffffffffff1673ffffffffffffffffffffffffffffffffffffffff1673ffffffffffffffffffffffffffffffffffffffff168152602001600182018054600181600116156101000203166002900480601f016020809104026020016040519081016040528092919081815260200182805460018160011615610100020316600290048015611cda5780601f10611caf57610100808354040283529160200191611cda565b820191906000526020600020905b815481529060010190602001808311611cbd57829003601f168201915b50505050508152602001600282015481526020016003820160009054906101000a900460ff161515151581525050905090565b600073ffffffffffffffffffffffffffffffffffffffff168173ffffffffffffffffffffffffffffffffffffffff1614151515611d4957600080fd5b8073ffffffffffffffffffffffffffffffffffffffff166000809054906101000a900473ffffffffffffffffffffffffffffffffffffffff1673ffffffffffffffffffffffffffffffffffffffff167fb8392f5cf9e1ec5c3312f2133b5aad9e01e03769bba90fce0a02b1ac5c52f92b60405160405180910390a3806000806101000a81548173ffffffffffffffffffffffffffffffffffffffff021916908373ffffffffffffffffffffffffffffffffffffffff16021790555050565b608060405190810160405280600073ffffffffffffffffffffffffffffffffffffffff16815260200160608152602001600081526020016000151581525090565b828054600181600116156101000203166002900490600052602060002090601f016020900481019282601f10611e8957805160ff1916838001178555611eb7565b82800160010185558215611eb7579182015b82811115611eb6578251825591602001919060010190611e9b565b5b509050611ec49190611f7a565b5090565b815481835581811115611ef557600302816003028360005260206000209182019101611ef49190611f9f565b5b505050565b828054600181600116156101000203166002900490600052602060002090601f016020900481019282601f10611f3b57805160ff1916838001178555611f69565b82800160010185558215611f69579182015b82811115611f68578251825591602001919060010190611f4d565b5b509050611f769190611f7a565b5090565b611f9c91905b80821115611f98576000816000905550600101611f80565b5090565b90565b611fe391905b80821115611fdf5760008082016000611fbe9190611fe6565b600182016000611fce919061202e565b600282016000905550600301611fa5565b5090565b90565b50805460018160011615610100020316600290046000825580601f1061200c575061202b565b601f01602090049060005260206000209081019061202a9190611f7a565b5b50565b508054600082556004029060005260206000209081019061204f9190612052565b50565b6120c191905b808211156120bd57600080820160006101000a81549073ffffffffffffffffffffffffffffffffffffffff02191690556001820160006120989190611fe6565b60028201600090556003820160006101000a81549060ff021916905550600401612058565b5090565b905600a165627a7a723058206480fbe0445e6d653916582545293bf1cd445a28e9d1edcc46017e2bfdabd48c0029",
  "source": "/* \nfunction transferCrown(address _newMonarch) public onlyMonarch {\n    _transferCrown(_newMonarch);\n}\n\n//why not put this in transferCrown?\nfunction _transferCrown(address _newMonarch) internal {\n    require(_newMonarch != address(0));\n    emit CrownTransferred(activeMonarchAddr, _newMonarch);\n    activeMonarchAddr = _newMonarch;\n}\n*/\npragma solidity ^0.4.24;\n\nimport \"./Ownable.sol\";\n\ncontract HeirToTheThrown is Ownable {\n\n\t//Points to latest contract\n\taddress public latestContract;\n\n\t//is using a mapping better than using an array here?\n\tdynasty[] public dynasties;\n\n\t//cost to become new monarch\n\tuint public crownCost;\n\n\t//How much higher than the last each price has to be (as a percentage)\n\tuint public coefCostPerc = 2;\n\t//Cost to abdicate (as a percentage)\n\tuint public abdicationCostPerc = 5;\n\n\t//Taxes pay towards\n\tuint public taxesHeld;\n\n\tstruct monarch {\n\t\taddress addr;\n\t\tstring name;\n\t\tuint costOfCrown;\n\t\tbool abdicated;\n\t}\n\n\tstruct dynasty {\n\t\tstring name;\n\t\tmonarch[] monarchs;\n\t\tuint totalMonarchs;//number of monarchs in this dynasty\n\t}\n\n\tmodifier onlyMonarch() {\n\t\trequire(msg.sender == getActiveMonarch().addr, \"Not the monarch\");\n\t\t_;\n\t}\n\n\t//Events\n\tevent DynastyStarted(address indexed DynastyStarter);\n\tevent CrownRenounced(address indexed previousMonarch);\n\tevent CrownTaken(address indexed previousMonarch, address indexed newMonarch, uint amount);\n\tevent TaxesPayed(address indexed from, address indexed currentMonarch, uint amount);\n\n\tconstructor(uint _startingCost) public payable {\n\t\tlatestContract = address(this);\n\t\tcontractOwner = msg.sender;\n\t\tcrownCost = _startingCost;\n\t\tstartDynasty(\"Flash\", \"First\");\n\t}\n\n\tfunction() public payable {\n\t\t//\n\t}\n\n\tfunction takeCrown(string _heirName) public payable {//TODO Check for exploits\n\t\trequire(msg.value + taxesHeld >= crownCost, \"Cannot afford the Crown\");\n\t\tuint value = msg.value + taxesHeld;\n\t\ttaxesHeld = 0;\n\n\t\tmonarch memory newMonarch = monarch(msg.sender, _heirName, value, false);\n\n\t\tif (dynasties.length == 1 && dynasties[0].monarchs.length < 1) {\n\t\t\tcontractOwner.transfer(value);\n\t\t\temit CrownTaken(contractOwner, newMonarch.addr, value);\n\t\t} else {\n\t\t\tgetActiveMonarch().addr.transfer(value);\n\t\t\temit CrownTaken(getActiveMonarch().addr, newMonarch.addr, value);\n\t\t}\n\n\t\tdynasties[dynasties.length - 1].monarchs.push(newMonarch);\n\t\t//TODO testing\n\t\tdynasties[dynasties.length - 1].totalMonarchs++;\n\n\t\tcrownCost = value + value * coefCostPerc / 100;\n\t}\n\n\tfunction startDynasty(string _heirName, string _dynastyName) public payable {\n\t\tif (dynasties.length != 0) {\n\t\t\trequire(dynasties[dynasties.length - 1].monarchs[dynasties[dynasties.length - 1].monarchs.length - 1].abdicated, \"Last Dynasty is still going strong\");\n\t\t}\n\t\tdynasties.length++;\n\t\tdynasties[dynasties.length - 1].name = _dynastyName;\n\t\ttakeCrown(_heirName);\n\t\temit DynastyStarted(msg.sender);\n\t}\n\n\tfunction abdication() private pure {//TODO\n\n\t}\n\n\tfunction abdicate() public payable onlyMonarch {\n\t\trequire(msg.value >= getActiveMonarch().costOfCrown * abdicationCostPerc * 100);\n\t\tcontractOwner.transfer(getActiveMonarch().costOfCrown * abdicationCostPerc * 100);\n\t}\n\n\tfunction getActiveMonarch() private view returns (monarch) {\n\t\treturn dynasties[dynasties.length - 1].monarchs[dynasties[dynasties.length - 1].monarchs.length - 1];\n\t}\n\n\tfunction getActiveMonarchAddr() external view returns (address) {\n\t\treturn dynasties[dynasties.length - 1].monarchs[dynasties[dynasties.length - 1].monarchs.length - 1].addr;\n\t}\n\n\tfunction payTaxes() public payable {\n\t\ttaxesHeld += msg.value / 2;\n\t\temit TaxesPayed(msg.sender, getActiveMonarch().addr, msg.value);\n\t}\n\n\t//Getters for monarch with indices\n\tfunction getMonarchAddr(uint _dynastyIndex, uint _monarchIndex) external view returns (address){\n\t\trequire(_dynastyIndex < dynasties.length && _monarchIndex < dynasties[_dynastyIndex].monarchs.length, \"Invalid monarch\");\n\t\treturn dynasties[_dynastyIndex].monarchs[_monarchIndex].addr;\n\t}\n\n\tfunction getMonarchName(uint _dynastyIndex, uint _monarchIndex) external view returns (string){\n\t\trequire(_dynastyIndex < dynasties.length && _monarchIndex < dynasties[_dynastyIndex].monarchs.length, \"Invalid monarch\");\n\t\treturn dynasties[_dynastyIndex].monarchs[_monarchIndex].name;\n\t}\n\n\tfunction getMonarchCrownCost(uint _dynastyIndex, uint _monarchIndex) external view returns (uint){\n\t\trequire(_dynastyIndex < dynasties.length && _monarchIndex < dynasties[_dynastyIndex].monarchs.length, \"Invalid monarch\");\n\t\treturn dynasties[_dynastyIndex].monarchs[_monarchIndex].costOfCrown;\n\t}\n\n\tfunction hasMonarchAbdicated(uint _dynastyIndex, uint _monarchIndex) external view returns (bool){\n\t\trequire(_dynastyIndex < dynasties.length && _monarchIndex < dynasties[_dynastyIndex].monarchs.length, \"Invalid monarch\");\n\t\treturn dynasties[_dynastyIndex].monarchs[_monarchIndex].abdicated;\n\t}\n\n\tfunction getActiveDynasty() private view returns (dynasty) {\n\t\treturn dynasties[dynasties.length - 1];\n\t}\n\n\tfunction getTotalDynasties() external view returns (uint) {\n\t\treturn dynasties.length;\n\t}\n\n\tfunction changeAddr(address _newAddress) public onlyMonarch {\n\t\tdynasties[dynasties.length - 1].monarchs[dynasties[dynasties.length - 1].monarchs.length - 1].addr = _newAddress;\n\t\t// getActiveMonarch().addr does not work\n\t}\n\n\t//If this code gets updated, point to it here\n\tfunction setLatestContract(address _latestContract) public onlyContractOwner {\n\t\tlatestContract = _latestContract;\n\t}\n\n\tfunction contractWithdrawal() public onlyContractOwner {\n\t\tmsg.sender.transfer(address(this).balance - taxesHeld);\n\t\t//Withdraws anything that isn't taxes\n\t}\n\n}",
  "sourcePath": "/home/flashy/Git Repos/HeirToTheThrown/truffle/contracts/HeirToTheThrown.sol",
  "compiler": {
    "name": "solc",
    "version": "0.4.24+commit.e67f0147.Emscripten.clang"
  },
  "schemaVersion": "2.0.1",
  "updatedAt": "2018-10-02T19:03:05.058Z"
}