{
  "contractName": "Keccak",
  "abi": [
    {
      "constant": true,
      "inputs": [
        {
          "name": "_name",
          "type": "string"
        }
      ],
      "name": "computeNamehash",
      "outputs": [
        {
          "name": "",
          "type": "bytes32"
        }
      ],
      "payable": false,
      "stateMutability": "pure",
      "type": "function"
    }
  ],
  "bytecode": "0x608060405234801561001057600080fd5b506103b1806100206000396000f300608060405260043610610041576000357c0100000000000000000000000000000000000000000000000000000000900463ffffffff168063d3c08b1314610046575b600080fd5b34801561005257600080fd5b506100ad600480360381019080803590602001908201803590602001908080601f01602080910402602001604051908101604052809392919081815260200183838082843782019150505050505091929192905050506100cb565b60405180826000191660001916815260200191505060405180910390f35b600080600060010290508060405160200180807f657468000000000000000000000000000000000000000000000000000000000081525060030190506040516020818303038152906040526040518082805190602001908083835b60208310151561014b5780518252602082019150602081019050602083039250610126565b6001836020036101000a03801982511681845116808217855250505050505090500191505060405180910390206040516020018083600019166000191681526020018260001916600019168152602001925050506040516020818303038152906040526040518082805190602001908083835b6020831015156101e357805182526020820191506020810190506020830392506101be565b6001836020036101000a0380198251168184511680821785525050505050509050019150506040518091039020905080836040516020018082805190602001908083835b60208310151561024c5780518252602082019150602081019050602083039250610227565b6001836020036101000a0380198251168184511680821785525050505050509050019150506040516020818303038152906040526040518082805190602001908083835b6020831015156102b55780518252602082019150602081019050602083039250610290565b6001836020036101000a03801982511681845116808217855250505050505090500191505060405180910390206040516020018083600019166000191681526020018260001916600019168152602001925050506040516020818303038152906040526040518082805190602001908083835b60208310151561034d5780518252602082019150602081019050602083039250610328565b6001836020036101000a03801982511681845116808217855250505050505090500191505060405180910390209050809150509190505600a165627a7a723058201545986709a56d858412e4a1518c44e448e33b4ff04e13550210c19c3ac27a7e0029",
  "source": "pragma solidity ^0.4.24;\n\ncontract Keccak {\n\n\tfunction computeNamehash(string _name) public pure returns (bytes32) {\n\t\tbytes32 namehash = 0x0000000000000000000000000000000000000000000000000000000000000000;\n\t\tnamehash = keccak256(\n\t\t\tabi.encodePacked(namehash, keccak256(abi.encodePacked(\"eth\")))\n\t\t);\n\t\tnamehash = keccak256(\n\t\t\tabi.encodePacked(namehash, keccak256(abi.encodePacked(_name)))\n\t\t);\n\t\treturn namehash;\n\t}\n\n}",
  "sourcePath": "/home/flashy/Git Repos/HeirToTheThrown/truffle/contracts/Keccak.sol",
  "compiler": {
    "name": "solc",
    "version": "0.4.24+commit.e67f0147.Emscripten.clang"
  },
  "schemaVersion": "2.0.1",
  "updatedAt": "2018-10-02T19:11:44.376Z"
}