{
  "contractName": "Ownable",
  "abi": [
    {
      "constant": true,
      "inputs": [],
      "name": "contractOwner",
      "outputs": [
        {
          "name": "",
          "type": "address"
        }
      ],
      "payable": false,
      "stateMutability": "view",
      "type": "function"
    },
    {
      "inputs": [],
      "payable": false,
      "stateMutability": "nonpayable",
      "type": "constructor"
    },
    {
      "anonymous": false,
      "inputs": [
        {
          "indexed": true,
          "name": "previousOwner",
          "type": "address"
        }
      ],
      "name": "contractOwnershipRenounced",
      "type": "event"
    },
    {
      "anonymous": false,
      "inputs": [
        {
          "indexed": true,
          "name": "previousOwner",
          "type": "address"
        },
        {
          "indexed": true,
          "name": "newOwner",
          "type": "address"
        }
      ],
      "name": "contractOwnershipTransferred",
      "type": "event"
    },
    {
      "constant": false,
      "inputs": [],
      "name": "renounceContractOwnership",
      "outputs": [],
      "payable": false,
      "stateMutability": "nonpayable",
      "type": "function"
    },
    {
      "constant": false,
      "inputs": [
        {
          "name": "_newContractOwner",
          "type": "address"
        }
      ],
      "name": "transferContractOwnership",
      "outputs": [],
      "payable": false,
      "stateMutability": "nonpayable",
      "type": "function"
    }
  ],
  "bytecode": "0x608060405234801561001057600080fd5b50336000806101000a81548173ffffffffffffffffffffffffffffffffffffffff021916908373ffffffffffffffffffffffffffffffffffffffff160217905550610493806100606000396000f300608060405260043610610057576000357c0100000000000000000000000000000000000000000000000000000000900463ffffffff16806313c698961461005c578063a843c51f14610073578063ce606ee0146100b6575b600080fd5b34801561006857600080fd5b5061007161010d565b005b34801561007f57600080fd5b506100b4600480360381019080803573ffffffffffffffffffffffffffffffffffffffff169060200190929190505050610278565b005b3480156100c257600080fd5b506100cb610348565b604051808273ffffffffffffffffffffffffffffffffffffffff1673ffffffffffffffffffffffffffffffffffffffff16815260200191505060405180910390f35b6000809054906101000a900473ffffffffffffffffffffffffffffffffffffffff1673ffffffffffffffffffffffffffffffffffffffff163373ffffffffffffffffffffffffffffffffffffffff161415156101d1576040517f08c379a00000000000000000000000000000000000000000000000000000000081526004018080602001828103825260168152602001807f4e6f742074686520636f6e7472616374206f776e65720000000000000000000081525060200191505060405180910390fd5b6000809054906101000a900473ffffffffffffffffffffffffffffffffffffffff1673ffffffffffffffffffffffffffffffffffffffff167fffcd9398806d9a44887f59da4f7b62df321d0637b2f381246eaf842fb67d67e560405160405180910390a260008060006101000a81548173ffffffffffffffffffffffffffffffffffffffff021916908373ffffffffffffffffffffffffffffffffffffffff160217905550565b6000809054906101000a900473ffffffffffffffffffffffffffffffffffffffff1673ffffffffffffffffffffffffffffffffffffffff163373ffffffffffffffffffffffffffffffffffffffff1614151561033c576040517f08c379a00000000000000000000000000000000000000000000000000000000081526004018080602001828103825260168152602001807f4e6f742074686520636f6e7472616374206f776e65720000000000000000000081525060200191505060405180910390fd5b6103458161036d565b50565b6000809054906101000a900473ffffffffffffffffffffffffffffffffffffffff1681565b600073ffffffffffffffffffffffffffffffffffffffff168173ffffffffffffffffffffffffffffffffffffffff16141515156103a957600080fd5b8073ffffffffffffffffffffffffffffffffffffffff166000809054906101000a900473ffffffffffffffffffffffffffffffffffffffff1673ffffffffffffffffffffffffffffffffffffffff167fb8392f5cf9e1ec5c3312f2133b5aad9e01e03769bba90fce0a02b1ac5c52f92b60405160405180910390a3806000806101000a81548173ffffffffffffffffffffffffffffffffffffffff021916908373ffffffffffffffffffffffffffffffffffffffff160217905550505600a165627a7a72305820c7693b9a3deec6cd7cb021ca766ebcc8e1ac1f4dc7e6837fbe2770d2488e8cfc0029",
  "source": "pragma solidity ^0.4.24;\n\ncontract Ownable {\n\t//Originally forked from OpenZeppelin\n\n\taddress public contractOwner;\n\n\tevent contractOwnershipRenounced(address indexed previousOwner);\n\tevent contractOwnershipTransferred(address indexed previousOwner, address indexed newOwner);\n\n\tconstructor() public {\n\t\tcontractOwner = msg.sender;\n\t}\n\n\tmodifier onlyContractOwner() {\n\t\trequire(msg.sender == contractOwner, \"Not the contract owner\");\n\t\t_;\n\t}\n\n\tfunction renounceContractOwnership() public onlyContractOwner {\n\t\temit contractOwnershipRenounced(contractOwner);\n\t\tcontractOwner = address(0);\n\t}\n\n\tfunction transferContractOwnership(address _newContractOwner) public onlyContractOwner {\n\t\t_transferContractOwnership(_newContractOwner);\n\t}\n\n\t//why not put this in transferContractOwnership?\n\tfunction _transferContractOwnership(address _newContractOwner) internal {\n\t\trequire(_newContractOwner != address(0));\n\t\temit contractOwnershipTransferred(contractOwner, _newContractOwner);\n\t\tcontractOwner = _newContractOwner;\n\t}\n\n}",
  "sourcePath": "/home/flashy/Git Repos/HeirToTheThrown/truffle/contracts/Ownable.sol",
  "compiler": {
    "name": "solc",
    "version": "0.4.24+commit.e67f0147.Emscripten.clang"
  },
  "schemaVersion": "2.0.1",
  "updatedAt": "2018-10-09T21:58:35.337Z"
}